{
  "_format": "hh-sol-artifact-1",
  "contractName": "DAO",
  "sourceName": "contracts/DAO.sol",
  "abi": [
    {
      "anonymous": false,
      "inputs": [
        {
          "indexed": false,
          "internalType": "uint256",
          "name": "id",
          "type": "uint256"
        },
        {
          "indexed": false,
          "internalType": "string",
          "name": "description",
          "type": "string"
        },
        {
          "indexed": false,
          "internalType": "address",
          "name": "proposer",
          "type": "address"
        }
      ],
      "name": "ProposalCreated",
      "type": "event"
    },
    {
      "anonymous": false,
      "inputs": [
        {
          "indexed": false,
          "internalType": "uint256",
          "name": "proposalId",
          "type": "uint256"
        },
        {
          "indexed": false,
          "internalType": "uint256",
          "name": "newVoteCount",
          "type": "uint256"
        }
      ],
      "name": "Voted",
      "type": "event"
    },
    {
      "inputs": [
        {
          "internalType": "string",
          "name": "_description",
          "type": "string"
        }
      ],
      "name": "createProposal",
      "outputs": [],
      "stateMutability": "nonpayable",
      "type": "function"
    },
    {
      "inputs": [
        {
          "internalType": "uint256",
          "name": "_proposalId",
          "type": "uint256"
        }
      ],
      "name": "getProposal",
      "outputs": [
        {
          "internalType": "uint256",
          "name": "",
          "type": "uint256"
        },
        {
          "internalType": "string",
          "name": "",
          "type": "string"
        },
        {
          "internalType": "uint256",
          "name": "",
          "type": "uint256"
        },
        {
          "internalType": "address",
          "name": "",
          "type": "address"
        }
      ],
      "stateMutability": "view",
      "type": "function"
    },
    {
      "inputs": [],
      "name": "nextProposalId",
      "outputs": [
        {
          "internalType": "uint256",
          "name": "",
          "type": "uint256"
        }
      ],
      "stateMutability": "view",
      "type": "function"
    },
    {
      "inputs": [
        {
          "internalType": "uint256",
          "name": "",
          "type": "uint256"
        }
      ],
      "name": "proposals",
      "outputs": [
        {
          "internalType": "uint256",
          "name": "id",
          "type": "uint256"
        },
        {
          "internalType": "string",
          "name": "description",
          "type": "string"
        },
        {
          "internalType": "uint256",
          "name": "voteCount",
          "type": "uint256"
        },
        {
          "internalType": "address",
          "name": "proposer",
          "type": "address"
        }
      ],
      "stateMutability": "view",
      "type": "function"
    },
    {
      "inputs": [
        {
          "internalType": "uint256",
          "name": "_proposalId",
          "type": "uint256"
        }
      ],
      "name": "vote",
      "outputs": [],
      "stateMutability": "nonpayable",
      "type": "function"
    }
  ],
  "bytecode": "0x6080604052348015600f57600080fd5b50610dec8061001f6000396000f3fe608060405234801561001057600080fd5b50600436106100575760003560e01c80630121b93f1461005c578063013cf08b146100785780632ab09d14146100ab57806349c2a1a6146100c9578063c7f758a8146100e5575b600080fd5b61007660048036038101906100719190610601565b610118565b005b610092600480360381019061008d9190610601565b6101fb565b6040516100a2949392919061070e565b60405180910390f35b6100b36102e3565b6040516100c0919061075a565b60405180910390f35b6100e360048036038101906100de91906108aa565b6102e9565b005b6100ff60048036038101906100fa9190610601565b610419565b60405161010f949392919061070e565b60405180910390f35b600080549050811061015f576040517f08c379a00000000000000000000000000000000000000000000000000000000081526004016101569061093f565b60405180910390fd5b600081815481106101735761017261095f565b5b90600052602060002090600402016002016000815480929190610195906109bd565b91905055507f84a5508ca0d85b42a876e75a9126f3ae7b43617ce60b170bf8805d34630bc65481600083815481106101d0576101cf61095f565b5b9060005260206000209060040201600201546040516101f0929190610a05565b60405180910390a150565b6000818154811061020b57600080fd5b906000526020600020906004020160009150905080600001549080600101805461023490610a5d565b80601f016020809104026020016040519081016040528092919081815260200182805461026090610a5d565b80156102ad5780601f10610282576101008083540402835291602001916102ad565b820191906000526020600020905b81548152906001019060200180831161029057829003601f168201915b5050505050908060020154908060030160009054906101000a900473ffffffffffffffffffffffffffffffffffffffff16905084565b60015481565b600060405180608001604052806001548152602001838152602001600081526020013373ffffffffffffffffffffffffffffffffffffffff16815250908060018154018082558091505060019003906000526020600020906004020160009091909190915060008201518160000155602082015181600101908161036d9190610c3a565b506040820151816002015560608201518160030160006101000a81548173ffffffffffffffffffffffffffffffffffffffff021916908373ffffffffffffffffffffffffffffffffffffffff16021790555050507fc8c078bfee58e5822588f08b4509ed1eb5058e03f666cca84dd2d44bf5c288a860015482336040516103f693929190610d0c565b60405180910390a160016000815480929190610411906109bd565b919050555050565b600060606000806000805490508510610467576040517f08c379a000000000000000000000000000000000000000000000000000000000815260040161045e90610d96565b60405180910390fd5b600080868154811061047c5761047b61095f565b5b9060005260206000209060040201604051806080016040529081600082015481526020016001820180546104af90610a5d565b80601f01602080910402602001604051908101604052809291908181526020018280546104db90610a5d565b80156105285780601f106104fd57610100808354040283529160200191610528565b820191906000526020600020905b81548152906001019060200180831161050b57829003601f168201915b50505050508152602001600282015481526020016003820160009054906101000a900473ffffffffffffffffffffffffffffffffffffffff1673ffffffffffffffffffffffffffffffffffffffff1673ffffffffffffffffffffffffffffffffffffffff1681525050905080600001518160200151826040015183606001519450945094509450509193509193565b6000604051905090565b600080fd5b600080fd5b6000819050919050565b6105de816105cb565b81146105e957600080fd5b50565b6000813590506105fb816105d5565b92915050565b600060208284031215610617576106166105c1565b5b6000610625848285016105ec565b91505092915050565b610637816105cb565b82525050565b600081519050919050565b600082825260208201905092915050565b60005b8381101561067757808201518184015260208101905061065c565b60008484015250505050565b6000601f19601f8301169050919050565b600061069f8261063d565b6106a98185610648565b93506106b9818560208601610659565b6106c281610683565b840191505092915050565b600073ffffffffffffffffffffffffffffffffffffffff82169050919050565b60006106f8826106cd565b9050919050565b610708816106ed565b82525050565b6000608082019050610723600083018761062e565b81810360208301526107358186610694565b9050610744604083018561062e565b61075160608301846106ff565b95945050505050565b600060208201905061076f600083018461062e565b92915050565b600080fd5b600080fd5b7f4e487b7100000000000000000000000000000000000000000000000000000000600052604160045260246000fd5b6107b782610683565b810181811067ffffffffffffffff821117156107d6576107d561077f565b5b80604052505050565b60006107e96105b7565b90506107f582826107ae565b919050565b600067ffffffffffffffff8211156108155761081461077f565b5b61081e82610683565b9050602081019050919050565b82818337600083830152505050565b600061084d610848846107fa565b6107df565b9050828152602081018484840111156108695761086861077a565b5b61087484828561082b565b509392505050565b600082601f83011261089157610890610775565b5b81356108a184826020860161083a565b91505092915050565b6000602082840312156108c0576108bf6105c1565b5b600082013567ffffffffffffffff8111156108de576108dd6105c6565b5b6108ea8482850161087c565b91505092915050565b7f50726f706f73616c20646f6573206e6f74206578697374210000000000000000600082015250565b6000610929601883610648565b9150610934826108f3565b602082019050919050565b600060208201905081810360008301526109588161091c565b9050919050565b7f4e487b7100000000000000000000000000000000000000000000000000000000600052603260045260246000fd5b7f4e487b7100000000000000000000000000000000000000000000000000000000600052601160045260246000fd5b60006109c8826105cb565b91507fffffffffffffffffffffffffffffffffffffffffffffffffffffffffffffffff82036109fa576109f961098e565b5b600182019050919050565b6000604082019050610a1a600083018561062e565b610a27602083018461062e565b9392505050565b7f4e487b7100000000000000000000000000000000000000000000000000000000600052602260045260246000fd5b60006002820490506001821680610a7557607f821691505b602082108103610a8857610a87610a2e565b5b50919050565b60008190508160005260206000209050919050565b60006020601f8301049050919050565b600082821b905092915050565b600060088302610af07fffffffffffffffffffffffffffffffffffffffffffffffffffffffffffffffff82610ab3565b610afa8683610ab3565b95508019841693508086168417925050509392505050565b6000819050919050565b6000610b37610b32610b2d846105cb565b610b12565b6105cb565b9050919050565b6000819050919050565b610b5183610b1c565b610b65610b5d82610b3e565b848454610ac0565b825550505050565b600090565b610b7a610b6d565b610b85818484610b48565b505050565b5b81811015610ba957610b9e600082610b72565b600181019050610b8b565b5050565b601f821115610bee57610bbf81610a8e565b610bc884610aa3565b81016020851015610bd7578190505b610beb610be385610aa3565b830182610b8a565b50505b505050565b600082821c905092915050565b6000610c1160001984600802610bf3565b1980831691505092915050565b6000610c2a8383610c00565b9150826002028217905092915050565b610c438261063d565b67ffffffffffffffff811115610c5c57610c5b61077f565b5b610c668254610a5d565b610c71828285610bad565b600060209050601f831160018114610ca45760008415610c92578287015190505b610c9c8582610c1e565b865550610d04565b601f198416610cb286610a8e565b60005b82811015610cda57848901518255600182019150602085019450602081019050610cb5565b86831015610cf75784890151610cf3601f891682610c00565b8355505b6001600288020188555050505b505050505050565b6000606082019050610d21600083018661062e565b8181036020830152610d338185610694565b9050610d4260408301846106ff565b949350505050565b7f50726f706f73616c20646f65736e277420657869737421000000000000000000600082015250565b6000610d80601783610648565b9150610d8b82610d4a565b602082019050919050565b60006020820190508181036000830152610daf81610d73565b905091905056fea26469706673582212203280eb4d72b5ac30c8e51e4e029d4a338dd18c19da3a2219eb0aea9dcf40aa6d64736f6c634300081c0033",
  "linkReferences": {},
  "deployedLinkReferences": {}
}